:100000000C9478010C9499010C9499010C94990129
:100010000C9499010C9499010C9499010C949901F8
:100020000C9499010C9499010C94A11B0C949901C6
:100030000C9499010C94D51B0C9499010C94982361
:100040000C9499010C9499010C9499010C949901C8
:100050000C9499010C9499010C9499010C949901B8
:100060000C9499010C9474220C9499010C949901AC
:100070000C9499010C9423240C9499010C949901EB
:100080000C94D5410C94EB410C9499010C944A4189
:100090000C9499010C9499010C9499010C94990178
:1000A0000C9499010C9499010C941E410C943441C8
:1000B0000C9499010C9489400C9499010C94990129
:1000C0000C9499010C9499010C9499010C94990148
:1000D0000C9499010C9499010C9499010C94990138
:1000E0000C949901C609E109D609B209840684066F
:1000F00084068406840684068406840606075F0454
:10010000F5037C0D8406780CF20AEB0AF809750AEF
:10011000CB0A791E611EA11E461E1B1E091EDF1D75
:10012000C41D8B1D6F1D1A1D1A1D1A1D1A1D1A1DA7
:100130001A1DB81D641D1A1D1A1D1A1D1A1D1A1D1F
:100140001A1D1A1D1A1D1A1D1A1D1A1D1A1D8B1D86
:10015000A11E581D4B1D1A1D1A1D1A1D1A1D1A1DF0
:100160001A1D1A1D1A1D1A1D1A1D1A1D1A1D1B1ED5
:10017000DF1D1A1D1A1D791E091E391DB427A82757
:100180009C279027842779276D271C280928EA2790
:10019000C327FD27BF271C2E422E012F7B2ED22ED8
:1001A000202F2B2F922DD82D084AD73B3BCE016E06
:1001B00084BCBFFDC12F3D6C74319ABD56833DDABE
:1001C0003D00C77F11BED9E4BB4C3E916BAAAABECD
:1001D000000000803F07634236B79BD8A71A3968F2
:1001E0005618AEBAAB558C1D3CB7CC5763BD6DED00
:1001F000FD753EF6177231BF000000803F05A84C28
:10020000CDB2D44EB93836A9020C50B991868808BF
:100210003CA6AAAA2ABE000000803F000C94A82792
:100220000C944B1D0C94FD270C94780C0C94091E17
:100230000C94202F0C94750A0C94581D0C94E10911
:100240000C946F1D0C946D270C94B81D0C948406AF
:100250000C9409280C94EA270C94D22E0C94461E78
:100260000C94BF270C9406070C94B2090C941A1D29
:100270000C9490270C94922D0C9484270C94C327F3
:100280000C94391D0C94A11E0C941C280C947C0D0C
:100290000C94791E0C94B4270C94C6090C942B2F43
:1002A0000C945F040C94641D0C94D6090C948B1D63
:1002B0000C949C270C947B2E0C94611E0C94D82DCE
:1002C0000C94422E0C94DF1D0C9479270C94C41DC1
:1002D0000C94F8090C941B1E0C94EB0A0C94F20A73
:1002E0000C94CB0A0C94F5030C94012F0C941C2E47
:1002F00011241FBECFEFD1E2DEBFCDBF00E00CBFA7
:1003000012E0A0E0B2E0EAE4F1EA00E00BBF02C0D4
:1003100007900D92AE32B107D9F725E1AEE2B2E017
:1003200001C01D92A236B207E1F70E9486020C942A
:10033000A3500C9400008F929F92AF92BF92CF92E5
:10034000DF92EF92FF92CF936A017B01FC01208143
:1003500031814281538164817581868197810E94B8
:100360007C4B21EE3EE245E652E40E945A4E4B01A0
:100370005C0121EE3EE245E652E4C701B6010E946F
:100380005A4E6B017C0120E030E044E353E40E94CC
:10039000DF4D181654F420E030E044EB53E4C7017D
:1003A000B6010E94FC4A6B017C01A7019601C501C0
:1003B000B4010E94FC4A6B017C0120E030E044E380
:1003C00053E40E94DF4D18160CF06EC020E030E0C0
:1003D00044EB53E4C701B6010E94FC4A6B017C0167
:1003E0002AE939E949E95EE3C701B6010E945A4E9C
:1003F0004B015C0120E030E040E751E40E94DF4D1A
:1004000018160CF466C020E030E040E751ECC5015E
:10041000B4010E94DB4B87FD71C0C501B4010E948D
:10042000914C7093F6036093F503C501B4019058A5
:100430000E94914CC62F6093F7037093F803C70195
:10044000B6019F7720E030E040E751E40E94DF4DA5
:1004500018160CF459C0C501B4019F7720E030E0B4
:1004600040EA50E40E94DF4D18160CF44DC080E0C5
:100470000E94612C80E00E947E2C109247020E9414
:10048000A223609348027093490280934A0290939A
:100490004B0281E0CF91FF90EF90DF90CF90BF9023
:1004A000AF909F908F90089520E030E044E353ECAC
:1004B000C701B6010E94DB4B87FF92CF20E030E0FE
:1004C00044EB53E4C701B6010E94FD4A6B017C0175
:1004D00087CF81EF21EF3FEF4FE050E05093F603DD
:1004E0004093F5033093F8032093F7030E94612CA7
:1004F0008091F5030E947E2C80E0CCCF8FE02FE02E
:1005000030E041EF5FEFEACF8C2FF0CFCF93DF9356
:10051000CDB7DEB7C755D3400FB6F894DEBF0FBED8
:10052000CDBF9E012F5F3F4FCF5DDC4F39832883C6
:10053000C152D34080E293E0D901FC011D92319772
:10054000E9F70E9438230E9401420E94A2238B01F6
:100550009C016093BC021093BD022093BE023093B5
:10056000BF021092C0021092C1021092C2021092F9
:10057000C3020E94A2236B017C010E94A223DC0122
:10058000CB018C199D09AE09BF0985349B40A1059B
:10059000B10598F30E94C8450E94A223CA5CDC4FB3
:1005A000688379838A839B83C653D3400E94AF2399
:1005B0000E94A2236093C4027093C5028093C60276
:1005C0009093C7020E94A223C85BDC4F68837983A3
:1005D0008A839B83C854D340C05BDC4F1882198246
:1005E0001A821B82C055D340CC5ADC4F1882198224
:1005F0001A821B82C455D340C05CDC4F188219821A
:100600001A821B82C054D340CC5BDC4F1882198203
:100610001A821B82C454D340C45BDC4F18821982F7
:100620001A821B82CC54D340C95DDC4F18821982D8
:100630001A821B82C752D340CF5CDC4F18821982CA
:100640001A821B82C153D340C15CDC4F1882CF5346
:10065000D340C65CDC4F1882CA53D340C55CDC4F24
:10066000188219821A821B82CB53D340CB5CDC4F99
:100670001882C553D340449845980E94A223DC01B8
:10068000CB01CF5CDC4F288139814A815B81C1532A
:10069000D340821B930BA40BB50B8093F103909373
:1006A000F203A093F303B093F4030E94A223CF5C60
:1006B000DC4F688379838A839B83C153D3400E9434
:1006C00024238093CC020E94A2236B017C010E9410
:1006D000B3440E946D4A0E94A223DC01CB018C1915
:1006E0009D09AE09BF098093E9039093EA03A093A3
:1006F000EB03B093EC030E94A223DC01CB01CA5CA4
:10070000DC4F288139814A815B81C653D340821BEB
:10071000930BA40BB50B8E319B44A105B10510F0D2
:100720000C94B80D0E94E41C80912E02833011F4C9
:100730000C94B40D882311F40C94B40D41E0409353
:100740002B07109206040E943F14882361F1209128
:100750002B0230912C022115310529F1A2EDB8E0D0
:10076000FE01319682E497E0220F331F220F331FE0
:100770002E52374F8D01D8014D915D916D917D9134
:100780008D014083518362837383DC014D915D91C0
:100790006D917D91CD01448355836683778338962F
:1007A0000217130741F780912B07882381F080916E
:1007B000AF029091B002A091B102B091B2028093C9
:1007C0002C0790932D07A0932E07B0932F078091AD
:1007D000CC0290E08F30910508F096C2FC0188278A
:1007E000EE58FF4F8F4F0C94A74F0E94004460912A
:1007F00032077091330780913407909135076093E9
:100800000204709303048093040490930504C09041
:100810003607D0903707E0903807F0903907C0923C
:10082000FE03D092FF03E0920004F09201040091D5
:10083000290210912A02CC5BDC4F288139814A8140
:100840005B81C454D3400E94FC4A20E030E048E47D
:1008500052EC0E945A4E4B015C0160932F02709340
:1008600030028093310290933202C05CDC4F2881C9
:1008700039814A815B81C054D340C701B6010E94CF
:10088000FC4A20E030E048E452EC0E945A4E6B01F2
:100890007C0160933302709334028093350290930D
:1008A000360280912E0290E08830910508F02CC22B
:1008B000FC018827EF57FF4F8F4F0C94A74F0E94E2
:1008C000004410923F021092400210924102109296
:1008D000420210924302109244021092450210927A
:1008E000460280912B0290912C02009711F40C94F7
:1008F0001F1332E8232E3DE0332E8E010F5F1F4F72
:10090000A2EFBBE0C95DDC4FB983A883C752D340D7
:10091000E2E6FAE0C55DDC4FF983E883CB52D340D1
:10092000880F991F880F991F9C012E57324FC15D68
:10093000DC4F39832883CF52D340CD5DDC4F188202
:1009400019821A821B82C352D340812C912C5401EC
:10095000D101CD90DD90ED90FD901D01F7FAF0945E
:10096000F7F8F094C95DDC4FE881F981C752D340B4
:100970004190519061907190C95DDC4FF983E8839B
:10098000C752D340D8012D913D914D915C91C70143
:10099000B6010E945A4EA30192010E94FD4A9B019A
:1009A000AC01C501B4010E94FD4A4B015C01C55D6B
:1009B000DC4FE881F981CB52D34041905190619056
:1009C0007190C55DDC4FF983E883CB52D340D801E9
:1009D00014962D913D914D915C911797C701B601E9
:1009E0000E945A4EA30192010E94FD4A9B01AC0154
:1009F000CD5DDC4F688179818A819B81C352D34070
:100A00000E94FD4ACD5DDC4F688379838A839B8396
:100A1000C352D340085F1F4FC15DDC4FE881F981AD
:100A2000CF52D3402E163F0609F092CF80923F025C
:100A300090924002A0924102B0924202609343021F
:100A400070934402809345029093460280912E0257
:100A5000833011F40C94531010F00C94430E88233F
:100A600011F40C94A20E8230C1F4C65CDC4F3881C4
:100A7000CA53D340332311F40C94E5124091AF02D2
:100A80005091B0026091B1027091B2028FE392E096
:100A90000E949B0181110C94D0120E94A223C95D77
:100AA000DC4F688379838A839B83C752D3400E943B
:100AB000A223C55DDC4F688379838A839B83CB52F5
:100AC000D3408091320790913307A0913407B091C1
:100AD0003507CD5DDC4F88839983AA83BB83C352DE
:100AE000D3409C01AD0160913A0770913B07809122
:100AF0003C0790913D070E94FC4A6B017C0180906D
:100B0000360790903707A0903807B0903907A501B5
:100B1000940160913E0770913F078091400790914A
:100B200041070E94FC4A9B01AC010E945A4E2B01D6
:100B30003C01A7019601C701B6010E945A4E9B01D4
:100B4000AC01C301B2010E94FD4A0E94D54E2B01A7
:100B50003C0120E030E040E05FE3609125027091CD
:100B6000260280912702909128020E945A4E6B0122
:100B70007C01F7FAF094F7F8F094C55DDC4F6881DA
:100B800079818A819B81CB52D34020E137E240E0DA
:100B900050E00E94664FCA01B9010E94C74C9B01F8
:100BA000AC01C701B6010E945A4E0E945F4C20E082
:100BB00030E04AE753E40E945A4E20E030E040E241
:100BC00051E40E94FD4A9B01AC01C301B2010E94A5
:100BD000FC4A20E030E0A9010E94DF4D18160CF01D
:100BE000E9C7CD5DDC4F288139814A815B81C352E1
:100BF000D34020933A0730933B0740933C075093F0
:100C00003D0780923E0790923F07A0924007B09226
:100C1000410720930204309303044093040450934B
:100C200005048092FE039092FF03A0920004B0920C
:100C3000010480910604882349F080913007909147
:100C400031070196909331078093300780911B0202
:100C500090911C02019690931C0280931B028FEFCF
:100C60000E9430448FEF0E9444448FEF0E9458440A
:100C70000E94A223C55CDC4F688379838A839B83AF
:100C8000CB53D3400E94A223DC01CB01C95DDC4FD2
:100C9000288139814A815B81C752D340821B930BE3
:100CA000A40BB50B8093ED039093EE03A093EF0399
:100CB000B093F0030E94A223DC01CB01C55CDC4FA2
:100CC000288139814A815B81CB53D340821B930BAE
:100CD000A40BB50B84369940A105B10508F056C7A1
:100CE0008FEF0E9430448FEF0E9444448FEF0E94A8
:100CF0005844C15CDC4F1882CF53D34051E0C65CEE
:100D0000DC4F5883CA53D3400E94A2236B017C015D
:100D10000E9478390E94A223DC01CB018C199D0925
:100D2000AE09BF098093E5039093E603A093E70320
:100D3000B093E8038091CC02CB5CDC4F9881C55323
:100D4000D340981709F497CC0E9404440E940B44A6
:100D500080910B01816080930B0180910B01826077
:100D600080930B0180910B01846080930B01A39A07
:100D700080910B01806180930B0180910B01806257
:100D800080930B0180910B01806480930B01809113
:100D90000B01806880930B018FEF80930F0280938B
:100DA0000E0280930D020E94304480910E020E9438
:100DB000444480910D020E94584480E00E947E2CA1
:100DC00080E00E94612C1092F9021092BA021092F7
:100DD000C8020E94A2236093C4027093C50280934C
:100DE000C6029093C7021092640210921C021092E5
:100DF0001B02A091CC02CB5CDC4FA883C553D3402F
:100E0000C65CDC4F1882CA53D34035CC0E940044E4
:100E100010923F0210924002109241021092420240
:100E20001092430210924402109245021092460220
:100E300080912B0290912C02009711F40C942C13AA
:100E400062E8262E6DE0362E8E010F5F1F4F42EFB7
:100E50005BE0C95DDC4F59834883C752D340A2E6AB
:100E6000BAE0C55DDC4FB983A883CB52D340880F6D
:100E7000991F880F991FFC01EE57F24FC15DDC4F9F
:100E8000F983E883CF52D340CD5DDC4F18821982BD
:100E90001A821B82C352D340812C912C5401D10160
:100EA000CD90DD90ED90FD901D01F7FAF094F7F8EC
:100EB000F094C95DDC4FE881F981C752D34041907D
:100EC000519061907190C95DDC4FF983E883C752FE
:100ED000D340D8012D913D914D915C91C701B60150
:100EE0000E945A4EA30192010E94FD4A9B01AC014F
:100EF000C501B4010E94FD4A4B015C01C55DDC4F98
:100F0000E881F981CB52D34041905190619071902A
:100F1000C55DDC4FF983E883CB52D340D8011496EA
:100F20002D913D914D915C911797C701B6010E949B
:100F30005A4EA30192010E94FD4A9B01AC01CD5D76
:100F4000DC4F688179818A819B81C352D3400E94A2
:100F5000FD4ACD5DDC4F688379838A839B83C352CE
:100F6000D340085F1F4FC15DDC4FE881F981CF524C
:100F7000D3402E163F0609F092CF80923F02909206
:100F80004002A0924102B0924202609343027093E9
:100F90004402809345029093460280912E02833052
:100FA00009F447C708F049C6882309F402C782300C
:100FB000C1F4C65CDC4F3881CA53D340332311F4EB
:100FC0000C94A3124091AF025091B0026091B10213
:100FD0007091B2028FE392E00E949B0181110C9408
:100FE0008E120E94A223C95DDC4F688379838A83B5
:100FF0009B83C752D3400E94A223DC01CB01C85B74
:10100000DC4F288139814A815B81C854D340821BDF
:10101000930BA40BB50B00911D0210911E022091A1
:101020001F023091200280179107A207B30708F42E
:10103000B8C51092370210923802109239021092FD
:101040003A0210923B0210923C0210923D02109222
:101050003E0220902B0230902C022114310411F416
:101060000C94391342E85DE0CD5DDC4F5983488331
:10107000C352D3408E010F5F1F4F220C331C220C32
:10108000331C220C331C200E311EC12CD12C7601B6
:1010900046015701CD5DDC4FA881B981C352D340D1
:1010A0004D905D906D907D90CD5DDC4FB983A883B0
:1010B000C352D340F8012081318142815381C30161
:1010C000B2010E945A4E9B01AC01C501B4010E94BD
:1010D000FD4A4B015C01D80114962D913D914D9133
:1010E0005C911797C301B2010E945A4E9B01AC015B
:1010F000C701B6010E94FD4A6B017C01085F1F4FCA
:101100002016310639F68092370290923802A0926A
:101110003902B0923A0260933B0270933C02809392
:101120003D0290933E02E894B7F8E894F7F8A701DF
:101130009601C501B4010E94DF4D2AE037ED43E27C
:101140005CE3181614F40C94D511C701B6010E9483
:101150005A4EC55DDC4F688379838A839B83CB526B
:10116000D34020913207309133074091340750919A
:101170003507CD5DDC4F288339834A835B83C352B7
:10118000D34060913A0770913B0780913C07909162
:101190003D070E94FC4A4B015C014090360750908D
:1011A00037076090380770903907A301920160916A
:1011B0003E0770913F0780914007909141070E9440
:1011C000FC4A6B017C01A5019401C501B4010E9498
:1011D0005A4E4B015C01A7019601C701B6010E945E
:1011E0005A4E9B01AC01C501B4010E94FD4A0E9408
:1011F000D54EC55DDC4F288139814A815B81CB5258
:10120000D3400E94FC4A20E030E0A9010E94DF4D5B
:10121000181614F00C949C11CD5DDC4F88819981D7
:10122000AA81BB81C352D34080933A0790933B0776
:10123000A0933C07B0933D0740923E0750923F0772
:1012400060924007709241078093020490930304D8
:10125000A0930404B09305044092FE035092FF0350
:10126000609200047092010480910604882349F082
:1012700080913007909131070196909331078093C8
:10128000300780911B0290911C02019690931C02E2
:1012900080931B028FEF0E9430448FEF0E944444E2
:1012A0008FEF0E9458440E94A223C55CDC4F6883E4
:1012B00079838A839B83CB53D340C15CDC4F1882F4
:1012C000CF53D34091E0C65CDC4F9883CA53D340E0
:1012D0000E94A223C85BDC4F688379838A839B8347
:1012E000C854D3400E94A223DC01CB01C95DDC4F6E
:1012F000288139814A815B81C752D340821B930B7D
:10130000A40BB50B8093ED039093EE03A093EF0332
:10131000B093F0030E94A223DC01CB01C55CDC4F3B
:10132000288139814A815B81CB53D340821B930B47
:10133000A40BB50B84369940A105B10508F02BC468
:10134000C65CDC4F4881CA53D340442309F4DCCC4B
:101350008FEF0E9430448FEF0E9444448FEF0E9431
:101360005844D2CC8091C802813009F4C4C408F436
:10137000B3C4823009F0C8CC8091BA028111C4CCC8
:1013800031E03093BA020E94D83EBECC8FEF0E946B
:10139000304480E00E9444448FEF0E94584480E033
:1013A0000E94612C80E00E947E2CAECCB1E0B09314
:1013B000F1028091530F813009F0A6CC0E94822D5A
:1013C000A3CC80910F020E94304480910E020E94B3
:1013D000444480910D020E9458440E9400440E949F
:1013E000074482E30E94612C82E30E947E2C8CCC15
:1013F000C0902B02D0902C02C114D10411F40C9493
:1014000045138E010F5F1F4F7601EE0CFF1CEE0C93
:10141000FF1CEE0CFF1CE00EF11EC05BDC4F888051
:101420009980AA80BB80C055D340CC5ADC4F4880FD
:1014300059806A807B80C455D340D8012D913D915D
:101440004D915C91C301B2010E94FD4A2B013C0108
:10145000F8012481358146815781C501B4010E947C
:10146000FD4A4B015C01085F1F4F0E151F0529F750
:10147000C05BDC4F688379838A839B83C055D340EC
:10148000CC5ADC4F488259826A827B82C455D34051
:10149000B60180E090E00E94C74C6B017C01C30163
:1014A000B201A70196010E94E54BCC5BDC4F68833B
:1014B00079838A839B83C454D340A7019601C05B80
:1014C000DC4F688179818A819B81C055D3400E941D
:1014D000E54BC05CDC4F688379838A839B83C0546F
:1014E000D340F6E0F0932E020FCCF801EE0FFF1F71
:1014F000EE0FFF1FE55FFB4F208131814281538159
:10150000CC5BDC4F688179818A819B81C454D34054
:101510000E94FD4ACC5BDC4F688379838A839B837E
:10152000C454D340F801EE0FFF1FEE0FFF1FE55626
:10153000FA4F2081318142815381C05CDC4F688148
:1015400079818A819B81C054D3400E94FD4AC05C4E
:10155000DC4F688379838A839B83C054D34022E025
:1015600020932E020E94A223DC01CB01C95DDC4F37
:10157000288139814A815B81C752D340821B930BFA
:10158000A40BB50B8093ED039093EE03A093EF03B0
:10159000B093F003B9CB80E00E94612C80E00E9400
:1015A0007E2C0E94A223DC01CB01C45BDC4F28818E
:1015B00039814A815B81CC54D340821B930BA40BAD
:1015C000B50B80399542A105B10508F49DCB43E0E8
:1015D00040932E0299CB80E00E94612C80E00E9413
:1015E0007E2CB6CE8FEF0E9430448FEF0E94444491
:1015F0008FEF0E94584480902F0290903002A0906C
:101600003102B090320260913302709134028091C5
:101610003502909136029B01AC010E945A4E6B013B
:101620007C01A5019401C501B4010E945A4E9B01A1
:10163000AC01C701B6010E94FD4A0E94D54E20911F
:1016400021023091220240912302509124020E94F3
:101650005A4E162F072FF82EE92E862F902FAF2DDA
:10166000BE2D8093070490930804A0930904B093BF
:101670000A04D0901502C0901602B0901702A090F4
:1016800018022D2D3C2D4B2D5A2D612F702F8F2D93
:101690009E2D0E94DF4D18160CF01BC78D2D9C2D22
:1016A000AB2DBA2D8093070490930804A0930904EE
:1016B000B0930A046D2D7C2D8B2D9A2D0E94914C98
:1016C0007093F8036093F7037093F6036093F50348
:1016D0006D2D7C2D8B2D9A2D0E94914C862F0E9472
:1016E000612C2091F9033091FA034091FB03509152
:1016F000FC036091070470910804809109049091A3
:101700000A040E94FC4A0E94914C862F0E947E2C63
:1017100040902C0750902D0760902E0770902F0757
:1017200020912F02309130024091310250913202CB
:1017300060913302709134028091350290913602AB
:101740000E947C4B21EE3EE245E652E40E945A4E56
:101750004B015C0121EE3EE245E652E4C301B201D9
:101760000E945A4E6B017C0120E030E044E353E4D8
:101770000E94DF4D181654F420E030E044EB53E4AF
:10178000C701B6010E94FC4A6B017C01A7019601CA
:10179000C501B4010E94FC4A6B017C0120E030E0ED
:1017A00044E353E40E94DF4D18160CF07DC620E0A0
:1017B00030E044EB53E4C701B6010E94FC4A6B01E0
:1017C0007C012AE939E949E95EE3C701B6010E94D3
:1017D0005A4E4B015C0120E030E040E751E40E94AA
:1017E000DF4D18160CF4F5C520E030E040E751EC71
:1017F000C501B4010E94DB4B87FD16C7C501B401CA
:101800000E94914C7093F6036093F503C501B401F7
:1018100090580E94914C7093F8036093F703C701AE
:10182000B6019F7720E030E040E751E40E94DF4DB1
:1018300018160CF4DAC5C501B4019F7720E030E03A
:1018400040EA50E40E94DF4D18160CF4CEC5109209
:1018500047020E94A223609348027093490280933A
:101860004A0290934B026091190270911A02072E5E
:10187000000C880B990B0E94C94C6B017C01CC5B5E
:10188000DC4F288139814A815B81C454D340609107
:1018900032077091330780913407909135070E9489
:1018A000FC4A9F77A70196010E94DB4B87FF2CCA59
:1018B000C05CDC4F288139814A815B81C054D340B0
:1018C00060913607709137078091380790913907FA
:1018D0000E94FC4A9B01AC015F77C701B6010E94E0
:1018E000DF4D18160CF010CA34E030932E020CCAEB
:1018F000C65CDC4F4881CA53D340442309F470C608
:10190000A5019401C701B6010E947C4B21EE3EE285
:1019100045E652E40E945A4E4B015C0121EE3EE244
:1019200045E652E46091AF027091B0028091B1023D
:101930009091B2020E945A4E6B017C0120E030E08F
:1019400044E353E40E94DF4D181654F420E030E0E5
:1019500044EB53E4C701B6010E94FC4A6B017C01D1
:10196000A7019601C501B4010E94FC4A6B017C01EC
:1019700020E030E044E353E40E94DF4D18160CF001
:101980007EC520E030E044EB53E4C701B6010E947D
:10199000FC4A6B017C012AE939E949E95EE3C701A8
:1019A000B6010E945A4E4B015C0120E030E040E756
:1019B00051E40E94DF4D18160CF44DC520E030E0D4
:1019C00040E751ECC501B4010E94DB4B87FD31C6F5
:1019D000C501B4010E94914C7093F6036093F50326
:1019E000C501B40190580E94914C162F6093F703E3
:1019F0007093F803C701B6019F7720E030E040E71D
:101A000051E40E94DF4D18160CF43DC6C501B40127
:101A10009F7720E030E040EA50E40E94DF4D181646
:101A20000CF431C680E00E94612C80E00E947E2C84
:101A3000109247020E94A2236093480270934902C9
:101A400080934A0290934B0257E050932E020E94DB
:101A5000A223C45BDC4F688379838A839B83CC5445
:101A6000D34080E00E94612C80E00E947E2C609137
:101A7000190270911A02072E000C880B990B0E9414
:101A8000C94C6B017C01CC5BDC4F288139814A81D8
:101A90005B81C454D34060913207709133078091C9
:101AA0003407909135070E94FC4A9F77A701960161
:101AB0000E94DB4B87FF28C9C05CDC4F288139813D
:101AC0004A815B81C054D3406091360770913707DB
:101AD00080913807909139070E94FC4A9B01AC0124
:101AE0005F77C701B6010E94DF4D18160CF00CC9D4
:101AF00084E080932E0208C98FEF0E9430448FEF5C
:101B00000E9444448FEF0E94584480E00E94612C60
:101B100080E00E947E2C8091FD03882309F4F4C8A4
:101B20000E94A2230091C4021091C5022091C60216
:101B30003091C702DC01CB01801B910BA20BB30BD0
:101B40008E319B44A105B10508F4DEC8F5E0F093A1
:101B50002E020E94A223C95DDC4F688379838A83A9
:101B60009B83C752D340D0C810922B070C94A1037B
:101B70000E94AB230E94A223CA5CDC4F6883798356
:101B80008A839B83C653D3400C949203C15CDC4F81
:101B90001882CF53D340C65CDC4F1882CA53D3405F
:101BA000B3C8C15CDC4F3881CF53D340332309F431
:101BB00099CB3FCAC15CDC4F9881CF53D340911180
:101BC0000C94F1050E94A223DC01CB01C95DDC4F1E
:101BD000288139814A815B81C752D340821B930B94
:101BE000A40BB50B8093ED039093EE03A093EF034A
:101BF000B093F0030E94A223DC01CB01C55CDC4F53
:101C0000288139814A815B81CB53D340821B930B5E
:101C1000A40BB50B84369940A105B10508F0BBCFE4
:101C2000C65CDC4F4881CA53D340411159C8C15CDE
:101C3000DC4F4883CF53D34067C8843009F46BC36B
:101C4000873009F0CEC980E00E94612C80E00E94BC
:101C50007E2C0E94A223DC01CB01C45BDC4F2881D7
:101C600039814A815B81CC54D340821B930BA40BF6
:101C7000B50B80399542A105B10508F4B2C943E01E
:101C800040932E02AEC9843009F451C0873011F060
:101C90000C944D0580E00E94612C80E00E947E2C17
:101CA0000E94A223DC01CB01C45BDC4F2881398177
:101CB0004A815B81CC54D340821B930BA40BB50BA0
:101CC00080399542A105B10510F40C944D0543E00F
:101CD00040932E020C944D050E94A2236093C402EF
:101CE0007093C5028093C6029093C702E1E0E0932F
:101CF000C8020C9484060E94A2230091C402109191
:101D0000C5022091C6023091C702DC01CB01801BC5
:101D1000910BA20BB30B8E319B44A105B10510F4BE
:101D20000C94840622E02093C8020C9484068FEF62
:101D30000E9430448FEF0E9444448FEF0E94584429
:101D40000C944D058FEF0E9430448FEF0E94444465
:101D50008FEF0E94584480E00E94612C80E00E9436
:101D60007E2C8091FD03882311F40C944D050E9474
:101D7000A2230091C4021091C5022091C6023091A5
:101D8000C702DC01CB01801B910BA20BB30B8E3180
:101D90009B44A105B10510F40C944D0542E040931D
:101DA0002E0251E0C15CDC4F5883CF53D3400C94DA
:101DB0004D058FEF0E9430448FEF0E9444448FEF17
:101DC0000E94584480E00E94612C80E00E947E2C9A
:101DD0008091FD03882309F404C90E94A223009185
:101DE000C4021091C5022091C6023091C702DC01E5
:101DF000CB01801B910BA20BB30B8E319B44A10531
:101E0000B10508F4EEC842E040932E020E94A223DE
:101E1000C95DDC4F688379838A839B83C752D34033
:101E20000E94A22351E0C15CDC4F5883CF53D340C2
:101E300000C9C65CDC4F8881CA53D340882309F4AB
:101E40008DC3CD5DDC4F288139814A815B81C352CE
:101E5000D340CA01B9010E945A4E6B017C01A50111
:101E60009401C501B4010E945A4E9B01AC01C70107
:101E7000B6010E94FD4A0E94D54E20912102309168
:101E8000220240912302509124020E945A4E162FA2
:101E9000072FF82EE92E862F902FAF2DBE2D809381
:101EA000070490930804A0930904B0930A04D09007
:101EB0001502C0901602B0901702A09018022D2DA6
:101EC0003C2D4B2D5A2D612F702F8F2D9E2D0E9452
:101ED000DF4D18160CF077C28D2D9C2DAB2DBA2D31
:101EE0008093070490930804A0930904B0930A0414
:101EF0006D2D7C2D8B2D9A2D0E94914C7093F803A3
:101F00006093F7037093F6036093F5036D2D7C2DBA
:101F10008B2D9A2D0E94914C862F0E94612C20912E
:101F2000F9033091FA034091FB035091FC03609157
:101F30000704709108048091090490910A040E949A
:101F4000FC4A0E94914C862F0E947E2C40902C07C8
:101F500050902D0760902E0770902F0720913F0220
:101F600030914002409141025091420260914302FF
:101F70007091440280914502909146020E947C4BF0
:101F800021EE3EE245E652E40E945A4E4B015C01CE
:101F900021EE3EE245E652E4C301B2010E945A4EF0
:101FA0006B017C0120E030E044E353E40E94DF4D0C
:101FB000181654F420E030E044EB53E4C701B601B6
:101FC0000E94FC4A6B017C01A7019601C501B40186
:101FD0000E94FC4A6B017C0120E030E044E353E4C2
:101FE0000E94DF4D18160CF021C220E030E044EBD7
:101FF00053E4C701B6010E94FC4A6B017C012AE947
:1020000039E949E95EE3C701B6010E945A4E4B0126
:102010005C0120E030E040E751E40E94DF4D1816FB
:102020000CF4AAC120E030E040E751ECC501B40156
:102030000E94DB4B87FDEEC2C501B4010E94914CAA
:102040007093F6036093F503C501B40190580E94A4
:10205000914C7093F8036093F703C701B6019F7723
:1020600020E030E040E751E40E94DF4D18160CF408
:102070008FC1C501B4019F7720E030E040EA50E411
:102080000E94DF4D18160CF483C1109247020E9483
:10209000A223609348027093490280934A0290936E
:1020A0004B020C94F107C65CDC4F8881CA53D340C5
:1020B000882309F411C2CD5DDC4F288139814A8122
:1020C0005B81C352D340CA01B9010E945A4E6B01D1
:1020D0007C01A5019401C501B4010E945A4E9B01E7
:1020E000AC01C701B6010E94FD4A0E94D54E209165
:1020F00021023091220240912302509124020E9439
:102100005A4E162F072FF82EE92E862F902FAF2D1F
:10211000BE2D8093070490930804A0930904B09304
:102120000A04D0901502C0901602B0901702A09039
:1021300018022D2D3C2D4B2D5A2D612F702F8F2DD8
:102140009E2D0E94DF4D18160CF040C18D2D9C2D48
:10215000AB2DBA2D8093070490930804A093090433
:10216000B0930A046D2D7C2D8B2D9A2D0E94914CDD
:102170007093F8036093F7037093F6036093F5038D
:102180006D2D7C2D8B2D9A2D0E94914C862F0E94B7
:10219000612C2091F9033091FA034091FB03509197
:1021A000FC036091070470910804809109049091E8
:1021B0000A040E94FC4A0E94914C862F0E947E2CA9
:1021C00040902C0750902D0760902E0770902F079D
:1021D00020913F02309140024091410250914202D1
:1021E00060914302709144028091450290914602B1
:1021F0000E947C4B21EE3EE245E652E40E945A4E9C
:102200004B015C0121EE3EE245E652E4C301B2011E
:102210000E945A4E6B017C0120E030E044E353E41D
:102220000E94DF4D181654F420E030E044EB53E4F4
:10223000C701B6010E94FC4A6B017C01A70196010F
:10224000C501B4010E94FC4A6B017C0120E030E032
:1022500044E353E40E94DF4D18160CF0D2C020E096
:1022600030E044EB53E4C701B6010E94FC4A6B0125
:102270007C012AE939E949E95EE3C701B6010E9418
:102280005A4E4B015C0120E030E040E751E40E94EF
:10229000DF4D18160CF457C020E030E040E751EC59
:1022A000C501B4010E94DB4B87FDB9C1C501B40172
:1022B0000E94914C7093F6036093F503C501B4013D
:1022C00090580E94914C7093F8036093F703C701F4
:1022D000B6019F7720E030E040E751E40E94DF4DF7
:1022E0001816ECF1C501B4019F7720E030E040EA18
:1022F00050E40E94DF4D181694F1109247020E949C
:10230000A223609348027093490280934A029093FB
:102310004B020C944D0580E00E94612C80E00E94ED
:102320007E2C8FEF0E9430448FEF0E9444448FEF49
:102330000E9458440C94F107C65CDC4F1882CA53C3
:10234000D3400C94680981EF9FEF2FE030E0309389
:10235000F6032093F5039093F8038093F703E2E0EC
:10236000E0932E024092AF025092B0026092B1020E
:102370007092B2020C944D052FE030E081EF9FEF98
:102380003093F6032093F5039093F8038093F703BB
:10239000B2E0B0932E024092AF025092B00260922F
:1023A000B1027092B2020C94F107C501B4010E940F
:1023B0005A4EC55DDC4F688379838A839B83CB52F9
:1023C000D3400C94B1086801570192CD68015701C0
:1023D000C9CE81EF9FEF2FE030E03093F6032093DA
:1023E000F5039093F8038093F703F2E0F0932E0245
:1023F0004092AF025092B0026092B1027092B2026B
:1024000032CA20E030E044E353ECC701B6010E9439
:10241000DB4B87FF2ECF20E030E044EB53E4C701D5
:10242000B6010E94FD4A6B017C0123CF20E030E021
:1024300044E353ECC701B6010E94DB4B87FFDFCDBD
:1024400020E030E044EB53E4C701B6010E94FD4AAE
:102450006B017C01D4CD81EF21EF3FEF4FE050E0E5
:102460005093F6034093F5033093F8032093F7035A
:102470000E94612C8091F5030E947E2CF8CA20E016
:1024800030E044E353ECC701B6010E94DB4B87FF09
:1024900082CA20E030E044EB53E4C701B6010E9459
:1024A000FD4A6B017C0177CA20E030E044E353EC45
:1024B000C701B6010E94DB4B87FF83C920E030E0F3
:1024C00044EB53E4C701B6010E94FD4A6B017C0155
:1024D00078C968015701EEC88FEF0E9430448FEF32
:1024E0000E9444448FEF0E94584480903F02909095
:1024F0004002A0904102B0904202209143023091EC
:1025000044024091450250914602CD5DDC4F288344
:1025100039834A835B83C352D340CDCD47E0409398
:102520002E020E94A223C45BDC4F688379838A83D6
:102530009B83CC54D34080E00E94612C80E00E94B9
:102540007E2C0C94F1078FEF0E9430448FEF0E9495
:1025500044448FEF0E9458440C94E2078FEF0E948E
:1025600030448FEF0E9444448FEF0E945844809083
:102570003F0290904002A0904102B0904202209110
:102580004302309144024091450250914602CD5D94
:10259000DC4F288339834A835B83C352D34051CCB9
:1025A00047E040932E020E94A223C45BDC4F688365
:1025B00079838A839B83CC54D34080E00E94612C32
:1025C00080E00E947E2C0C944D058FEF0E943044D9
:1025D0008FEF0E9444448FEF0E9458440C943E05B4
:1025E0008FEF0E9430448FEF0E9444448FEF0E948F
:1025F000584480902F0290903002A0903102B09009
:102600003202C0903302D0903402E0903502F09054
:10261000360276C921EF3FEF8FE090E0B1CE8FE038
:1026200090E021EF3FEF93CE8FE090E021EF3FEF7E
:10263000D4CE8FE02FE030E041EF5FEF11CFCD5DE2
:10264000DC4F188219821A821B82C352D340812C1C
:10265000912C54010C942605CD5DDC4F1882198213
:102660001A821B82C352D340812C912C54010C94AA
:10267000CD07C55DDC4F188219821A821B82CB52AE
:10268000D3400C94B108812FF3CEC12CD12C76010C
:10269000CC5ADC4F688179818A819B81C455D340B3
:1026A0000C94510A84B1807F84B984B1876084B965
:1026B00080E58CBD8DB581608DBD08954423F9F012
:1026C000FC01DB014150242F30E02F5F3F4F280FEA
:1026D000391F41E081918EBD80E090E0019680310C
:1026E00057E2950768F40DB407FEF8CF8091FB021E
:1026F000811105C08EB58D93E217F30759F7089540
:102700004093FB020DB407FEE9CF08956623E1F084
:10271000FC016150262F30E02F5F3F4F280F391FFB
:1027200041E081918EBD80E090E00196803157E2DA
:10273000950758F40DB407FEF8CF8091FB02811184
:1027400003C0E217F30769F708954093FB020DB445
:1027500007FEEBCF08958EBD81E090E021E005C03B
:102760000196803137E2930728F40DB407FEF8CFC5
:102770008EB508952093FB02F8CFCF93DF9300D05E
:10278000CDB7DEB7289880E20E94AB138DE00E949F
:10279000AB13289A289883E20E94AB1381E00E9431
:1027A000AB13289A8091FD029091FE0299838A834F
:1027B0001B82289880E30E94AB1363E0CE01019650
:1027C0000E948613289A28988AE20E94AB1363E03D
:1027D000CE0101960E948613289A289881E20E94D1
:1027E000AB1381E00E94AB13289A289882E20E94E2
:1027F000AB1381E00E94AB13289A289884E20E94D0
:10280000AB1382E10E94AB13289A289885E20E94BC
:10281000AB1388E20E94AB13289A289881E30E94A8
:10282000AB138DE00E94AB13289A289880E50E9494
:10283000AB1383E70E94AB13289A28988CE30E947D
:10284000AB1381E00E94AB13289A28988DE30E9475
:10285000AB1386E00E94AB13289A289880E20E946E
:10286000AB138FE00E94AB13289A0F900F900F903C
:10287000DF91CF9108952C9A289A0C94BD134F9212
:102880005F926F927F928F929F92AF92BF92CF9200
:10289000DF92EF92FF920F931F93CF93DF931F92DC
:1028A000CDB7DEB78091120F882399F080E00F90AA
:1028B000DF91CF911F910F91FF90EF90DF90CF901C
:1028C000BF90AF909F908F907F906F905F904F9050
:1028D000089528988FEF0E94AB13289A86FFE6CFC1
:1028E0008091FC0282608093FC02289887E20E941B
:1028F000AB1380E70E94AB13289A1982289887E1CE
:102900000E94AB1341E0BE016F5F7F4FCB010E947D
:102910005E13289A898180FDCACF289881E60E949B
:10292000AB134DE06FE673E1CB010E945E13289A72
:10293000289887E20E94AB1380E40E94AB13289A88
:10294000289882EE0E94AB13289A8091FA02813077
:1029500009F432C41091721317FD54C200916F1321
:10296000F0907113E0907013609170137091711377
:10297000072E000C880B990B0E94C94C20E030E414
:102980004FE054E40E94E54B60932C0770932D07B1
:1029900080932E0790932F078091530F811120C0B1
:1029A0002E2D2F7730E0309300032093FF028F2DE0
:1029B0008F7790E09093020380930103E7FC03C0BC
:1029C00031952195310930931A0320931903F7FCAF
:1029D00003C09195819591099093180380931703F3
:1029E00016FF4DC181E08093FD03609174137091D7
:1029F0007513072E000C880B990B0E94C94C6B01B4
:102A00007C0160933207709333078093340790936F
:102A100035076091761370917713072E000C880BA1
:102A2000990B0E94C94C2B013C01609336077093AF
:102A30003707809338079093390714FF29C010E0B7
:102A4000000F111F000F111F98012E52374F59010F
:102A50006091781370917913072E000C880B990BF5
:102A60000E94C94CF50160837183828393830E5B5E
:102A7000184F60917A1370917B13072E000C880B0E
:102A8000990B0E94C94CF801608371838283938300
:102A900080917313807E803E09F472C21091CC0243
:102AA000123009F492C1809110028093A7128530F0
:102AB00009F47AC208F048C0833009F42FC1843089
:102AC00009F0B9C090919F038091A0039093A81240
:102AD0008093A9129091A7038091A8039093AA12C2
:102AE0008093AB129091A9038091AA039093AC12AA
:102AF0008093AD129091AB038091AC039093AE1292
:102B00008093AF129091AD038091AE039093B01279
:102B10008093B1129091E9028091EA029093B212EF
:102B20008093B3129091E7028091E8029093B412DF
:102B30008093B5128091F4028093B61285E0809361
:102B4000100210912B0779C0863009F49BC08730A2
:102B500009F071C0C090AF02D090B002E090B10215
:102B6000F090B202C092AB02D092AC02E092AD0201
:102B7000F092AE026091020470910304809104040B
:102B8000909105040E94984C6093A8127093A9122A
:102B90006091FE037091FF03809100049091010405
:102BA0000E94984C6093AA127093AB1290911B02F2
:102BB00080911C029093AC128093AD1260914A07F1
:102BC00070914B0780914C0790914D070E94984C53
:102BD0006093AE127093AF1220E030E44FE054E403
:102BE000C701B6010E945A4E0E94914C6093B012E8
:102BF0007093B1126091A7027091A8028091A9020E
:102C00009091AA020E94984C6093B2127093B312F2
:102C10006091A3027091A4028091A5029091A602F6
:102C20000E94984C6093B4127093B5121092B61231
:102C300083E08093100210912B07111106C0809140
:102C400073138571853109F401C2289881EE0E94C1
:102C5000AB13289A289888EA0E94AB1307EA12E17E
:102C600087EBE82E82E1F82EF80181918F010E9416
:102C7000AB13E016F106C1F7289A81E018CE109246
:102C8000FD03B3CE3091F1032091F2039091F30351
:102C90008091F4033093A8122093A9129093AA1262
:102CA0008093AB123091E9032091EA039091EB03FA
:102CB0008091EC033093AC122093AD129093AE123E
:102CC0008093AF1260910704709108048091090409
:102CD00090910A040E94984C6093B0127093B112C4
:102CE0009091290280912A029093B2128093B3129C
:102CF0006091DA087091DB088091DC089091DD0822
:102D00000E94984C6093B4127093B5121092B61250
:102D100087E08093100210912B078FCF909197033B
:102D2000809198039093A8128093A912909199038F
:102D300080919A039093AA128093AB1290919B0377
:102D400080919C039093AC128093AD1290919D035F
:102D500080919E039093AE128093AF129091A10345
:102D60008091A2039093B0128093B1129091A3032B
:102D70008091A4039093B2128093B3129091A50313
:102D80008091A6039093B4128093B51280910301B1
:102D9000309103012091030184FB992790F9822F40
:102DA000881F8827881F880F880F892B35FB882468
:102DB00080F8912C880C991C882A8092B61284E0A5
:102DC0008093100210912B0738CF8091530F8111FF
:102DD0006ACE8091761380FF66CE0E94C8458FEF41
:102DE00093E09093A8038093A7039093AE038093FE
:102DF000AD0386E08093461581E08093A012809316
:102E0000530F51CE812F8F70E82EF12C107509F0E1
:102E10002EC18111E6C100916F1310E010932A02B8
:102E2000009329028091731390E090932C02809379
:102E30002B026091701370917113072E000C880B98
:102E4000990B0E94C94C20E030E44FE054E40E940A
:102E5000E54B60932C0770932D0780932E0790937A
:102E60002F076093AF027093B0028093B1029093EA
:102E7000B2026091741370917513072E000C880BC9
:102E8000990B0E94C94C2B013C01000F111F000F30
:102E9000111FF801EE52F74F408251826282738215
:102EA0006091761370917713072E000C880B990BA5
:102EB0000E94C94C6B017C01F801EE5BF84F608306
:102EC0007183828393838091781390917913909387
:102ED0001A028093190260917A1370917B13072E66
:102EE000000C880B990B0E94C94C609315027093DB
:102EF0001602809317029093180240920204509297
:102F000003046092040470920504C092FE03D09200
:102F1000FF03E0920004F09201044092A702509255
:102F2000A8026092A9027092AA02C092A302D09253
:102F3000A402E092A502F092A602409232075092BB
:102F400033076092340770923507C0923607D092EB
:102F50003707E0923807F092390740923A075092CB
:102F60003B0760923C0770923D07C0923E07D092AB
:102F70003F07E0924007F09241071091CC0290CDBC
:102F800081E080930604C092A702D092A802E0924A
:102F9000A902F092AA024092A3025092A402609267
:102FA000A5027092A6027ACD8091F5039091F60366
:102FB00097FD9EC1992780684091ED033091EE0303
:102FC0002091EF039091F0034093A8123093A9123F
:102FD0002093AA129093AB124091E5033091E6033F
:102FE0002091E7039091E8034093AC123093AD1227
:102FF0002093AE129093AF128093B01210912B07D2
:103000001093B11220E030E44FE054E460912C07BB
:1030100070912D0780912E0790912F070E945A4E94
:103020000E94914C6093B2127093B312909130074A
:10303000809131079093B4128093B5128091CC02A5
:103040008093B61286E080931002F7CD80912C0712
:1030500090912D07A0912E07B0912F078093AF027A
:103060009093B002A093B102B093B202EECD1031B2
:1030700009F443C1103409F4BAC1103509F00ECD7A
:103080001091CC0284EF810F823008F4C5C2C701D1
:10309000880F991F880F991F9C0125563A4F690187
:1030A00060916F1370917013072E000C880B990BB1
:1030B0000E94C94CF6016083718382839383C701A8
:1030C000880F991F880F991F9C0121563A4F69015B
:1030D0006091731370E0762F662780917113682BCF
:1030E000072E000C880B990B0E94C94CF6016083D7
:1030F000718382839383C701880F991F880F991F5B
:103100009C012D553A4F69016091741370917513AC
:10311000072E000C880B990B0E94C94CF6016083A6
:10312000718382839383C701880F991F880F991F2A
:103130009C0129553A4F690160917613709177137C
:10314000072E000C880B990B0E94C94CF601608376
:10315000718382839383C701880F991F880F991FFA
:103160009C0125553A4F690160917813709179134C
:10317000072E000C880B990B0E94C94CF601608346
:10318000718382839383C701880F991F880F991FCA
:103190009C0121553A4F790160917A1370917B130C
:1031A000072E000C880B990B0E94C94CF701608315
:1031B00071838283938374CC289881EE0E94AB1331
:1031C000289A289888EA0E94AB1307EA12E1F801CE
:1031D00081918F010E94AB13F2E1073B1F07B9F702
:1031E0004BCD870101501109000F111F000F111F56
:1031F00098012E52374F690160916F1370917013CF
:10320000072E000C880B990B0E94C94CF6016083B5
:103210007183828393830E5B184F6091731370E008
:10322000762F662780917113682B072E000C880B70
:10323000990B0E94C94CF801608371838283938348
:103240008701000F111F000F111F98012E52374FD9
:1032500069016091741370917513072E000C880B2F
:10326000990B0E94C94CF60160837183828393831A
:103270000E5B184F6091761370917713072E000C38
:10328000880B990B0E94C94CF8016083718382837B
:103290009383FFEFEF1AFF0A8701000F111F000F42
:1032A000111F98012E52374F790160917813709158
:1032B0007913072E000C880B990B0E94C94CF7015B
:1032C00060837183828393830E5B184F60917A13BE
:1032D00070917B13072E000C880B990B0E94C94C30
:1032E000F80160837183828393831091CC02D8CBE1
:1032F00091958195910999275FCE8701000F111F44
:10330000000F111F0E57124F60916F1370917013C1
:10331000072E000C880B990B0E94C94CF8016083A2
:103320007183828393838701000F111F000F111F88
:103330000A57124F6091731370E0762F66278091C1
:103340007113682B072E000C880B990B0E94C94C37
:10335000F80160837183828393838701000F111FBB
:10336000000F111F0657124F60917413709175135F
:10337000072E000C880B990B0E94C94CF801608342
:103380007183828393838701000F111F000F111F28
:103390000257124F6091761370917713072E000C2D
:1033A000880B990B0E94C94CF8016083718382835A
:1033B00093838701000F111F000F111F0E56124F2C
:1033C0006091781370917913072E000C880B990B7C
:1033D0000E94C94CF80160837183828393838701C3
:1033E000000F111F000F111F0A56124F6FCF1091BF
:1033F000CC0284EF810F823008F485C0C701880FAA
:10340000991F880F991F9C01255F3B4F69016091AF
:103410006F1370917013072E000C880B990B0E948C
:10342000C94CF6016083718382839383C701880F3F
:10343000991F880F991F9C01215F3B4F6901609183
:10344000731370E0762F662780917113682B072E17
:10345000000C880B990B0E94C94CF60160837183A4
:1034600082839383C701880F991F880F991F9C013E
:103470002D5E3B4F69016091741370917513072E97
:10348000000C880B990B0E94C94CF6016083718374
:1034900082839383C701880F991F880F991F9C010E
:1034A000295E3B4F69016091761370917713072E67
:1034B000000C880B990B0E94C94CF6016083718344
:1034C00082839383C701880F991F880F991F9C01DE
:1034D000255E3B4F69016091781370917913072E37
:1034E000000C880B990B0E94C94CF6016083718314
:1034F00082839383C701880F991F880F991F9C01AE
:10350000215E3B4F48CE8701000F111F000F111F96
:103510000E50144F60916F1370917013072E000CB2
:10352000880B990B0E94C94CF801608371838283D8
:1035300093838701000F111F000F111F0A50144FB2
:103540006091731370E0762F662780917113682B5A
:10355000072E000C880B990B0E94C94CF801608360
:103560007183828393838701000F111F000F111F46
:103570000650144F6091741370917513072E000C50
:10358000880B990B0E94C94CF80160837183828378
:1035900093838701000F111F000F111F0250144F5A
:1035A0006091761370917713072E000C880B990B9E
:1035B0000E94C94CF80160837183828393838701E1
:1035C000000F111F000F111F0E5F134F6091781332
:1035D00070917913072E000C880B990B0E94C94C2F
:1035E000F80160837183828393838701000F111F29
:1035F000000F111F0A5F134F60917A1370917B13B4
:10360000072E000C880B990B0E94C94CF8016083AF
:1036100071838283938347CA8701000F111F000FB4
:10362000111F0E59154F60916F1370917013072E73
:10363000000C880B990B0E94C94CF80160837183C0
:10364000828393838701000F111F000F111F0A59F6
:10365000154F6091731370E0762F66278091711378
:10366000682B072E000C880B990B0E94C94CF8019F
:1036700060837183828393838701000F111F000F82
:10368000111F0659154F6091741370917513072E11
:10369000000C880B990B0E94C94CF8016083718360
:1036A000828393838701000F111F000F111F02599E
:1036B000154F6091761370917713072E000C880BCD
:1036C000990B0E94C94CF8016083718382839383B4
:1036D0008701000F111F000F111F0E58154F609129
:1036E000781370917913072E000C880B990B0E94A8
:1036F000C94CF80160837183828393838701000F33
:10370000111F000F111F0A58154F76CFCF93DF936B
:10371000C8E6D0E01882ACE6B0E01C92E0EBF0E046
:1037200010821092B10010927000888182608883AC
:103730008C9180688C93808182608083DF91CF91AF
:1037400008951F920F920FB60F9211248F938091BC
:10375000F102882321F18091030186FD20C0809130
:1037600068008D7F8093680080916C008F778093D4
:103770006C0081E080930B028DE08093B300809118
:10378000B10086608093B100809170008260809368
:10379000700010924F021092500210924E028F91C0
:1037A0000F900FBE0F901F9018951F920F920FB69B
:1037B0000F9211242F933F934F935F936F937F93B7
:1037C0008F939F938091B100887F8093B100809107
:1037D0000B02882369F18091030186FD68C0109275
:1037E0000B0283E38093B3008091B10086608093E5
:1037F000B10080917000826080937000809104021B
:10380000909105028F3F2FEF920729F00196909338
:103810000502809304029F918F917F916F915F9138
:103820004F913F912F910F900FBE0F901F901895C1
:1038300080910402909105028F3F4FEF940709F4A5
:1038400047C08130910509F47AC0AC01425051095A
:103850004530510508F44FC09C01275031092630EE
:10386000310508F08BC086E38093B3008091B100EE
:1038700086608093B10080917000826080937000B8
:1038800020910301809104029091050226FB662796
:1038900060F92CE030E0281B390B01C0660F2A9537
:1038A000EAF720914F02620F60934F02ABCF8091F5
:1038B000680082608093680080916C0080688093CB
:1038C0006C008FEF9FEF9093050280930402A3CFCB
:1038D0002091030126FF3CC02091680022602093C4
:1038E000680020916C00206820936C009093050282
:1038F0008093040290CF86E38093B3008091B1005F
:1039000086608093B1008091700082608093700027
:1039100040910301809104029091050246FB222709
:1039200020F946E050E0481B590B01C0220F4A9590
:10393000EAF730915002230F2093500263CF809119
:10394000030186FB882780F980934E0286E34ACFE5
:103950008CE18093B3008091B10086608093B100C8
:103960008091700082608093700010924F021092DC
:10397000500210924E0281E090E049CF8D309105C7
:1039800009F044CF109270008091680082608093AB
:10399000680080916C00806880936C008FEF9FEFCF
:1039A000909305028093040280914E028093060258
:1039B0008091500280934D0280914F0280934C027F
:1039C00081E08093F30227CF0F931F938091F10240
:1039D000882321F08091F302811103C01F910F9180
:1039E00008951092F3020E94A2230091EC0210911C
:1039F000ED022091EE023091EF02DC01CB01801B41
:103A0000910BA20BB30B83389740A105B10530F39E
:103A10000E94A2236093EC027093ED028093EE0269
:103A20009093EF0280914C028093F40290E08533F2
:103A30009105C0F08091190390911A03209117030A
:103A40003091180397FD90C0909300038093FF027C
:103A500037FF03C03195219531093093020320933C
:103A60000103BCCFFC018827E757FF4F8F4F0C9411
:103A7000A74F8091F00290E0019683709927809380
:103A8000F002823099F0833009F4A2C1813009F448
:103A9000ADC11092B5021092B402809119039091B9
:103AA0001A032091170330911803CCCF1092B5025E
:103AB00081E08093B4028091190390911A032091C0
:103AC000170330911803BECF1092B50280911903ED
:103AD00090911A032091170330911803B3CF2091CE
:103AE00017033091180322503109309318032093A3
:103AF000170321388FEF38070CF048C181E89FEF9A
:103B000090931803809317038091190390911A03DF
:103B100021E83FEF97CF8091190390911A032091EC
:103B20001B0330911C038217930724F08091170325
:103B300090911803029790931A038093190390931E
:103B400018038093170381384FEF94070CF023C1BB
:103B500081E89FEF90931A038093190390931803C1
:103B60008093170321E83FEF9195819591096CCFE0
:103B700081E08093B5028091190390911A032091FE
:103B80001703309118035ECF8091190390911A03A7
:103B9000029790931A038093190381382FEF9207AD
:103BA0000CF04CCF81E89FEF90931A038093190398
:103BB00020911703309118038FE790E045CF809153
:103BC000190390911A03029790931A038093190393
:103BD00020911703309118032E5F3F4F3093180345
:103BE0002093170381384FEF94070CF0D6C081E87B
:103BF0009FEF90931A038093190320383105E4F264
:103C000081E89FEF2FE730E03093180320931703EC
:103C100019CF10921A0310921903109218031092E0
:103C200017038091CC02883009F4EDC020E030E029
:103C300080E090E009CF8091190390911A030296D9
:103C400090931A038093190320911703309118035E
:103C500022503109309318032093170380389105BF
:103C60000CF4A0C08FE790E090931A03809319039F
:103C700021388FEF38070CF09FCF8FE790E021E8D5
:103C80003FEF3093180320931703DCCE20911703E6
:103C9000309118032E5F3F4F309318032093170382
:103CA000203831050CF472C08FE790E09093180330
:103CB000809317038091190390911A032FE730E046
:103CC000C1CE8091190390911A03029690931A0322
:103CD00080931903803891050CF4B0CE8FE790E003
:103CE00090931A03809319032091170330911803BE
:103CF000ABCE8091F20290E0019665E070E00E9408
:103D0000524F8093F202811153C0449A459A109207
:103D10000D028FEF80930E0280930F020E943044B9
:103D200080910E020E94444480910D020E945844EA
:103D30008091190390911A03209117033091180371
:103D400081CE8091190390911A032091170330912D
:103D50001803281739070CF0C901029690931A032B
:103D6000809319039093180380931703803891056B
:103D700094F08FE790E090931A0380931903909347
:103D80001803809317032FE730E05ECE809119036C
:103D900090911A0357CE9C0155CE203831050CF472
:103DA00051CE30CF21384FEF34070CF04BCE67CFD8
:103DB0008130F1F1823009F443C0833009F44BC003
:103DC0008FEF80930D0280930E0280930F02A6CF97
:103DD00081E08093B5028093B402809119039091A1
:103DE0001A0320911703309118032CCE8093B5024B
:103DF0001092B4028091190390911A032091170335
:103E0000309118031FCE0E94C8458FEF93E0909326
:103E1000A8038093A7039093AE038093AD0386E03D
:103E20008093461581E08093A0128093530F02CEB9
:103E30008FEF80930D0210920E0280930F026ECFCF
:103E4000449845988FEF80930D0280930E02109254
:103E50000F0280E063CF10920D0210920E021092BA
:103E60000F0280E05BCF8F929F92AF92BF92CF9272
:103E7000DF92EF92FF920F931F93FC01808191815B
:103E8000892B09F4A7C020910C1530910D153093A2
:103E9000A6122093A5120081118117FDD7C0809131
:103EA0001F0390912003081B190B10930D1500930D
:103EB0000C154091070350910803400F511F4134E6
:103EC00086E058070CF49BC080E496E090930803CA
:103ED0008093070390ECC92E92E1D92EE12CF12CAE
:103EE00080819181AC01440F551F440F551F440F31
:103EF000551F4A01550FAA08BB08D801AA0FBB1FBE
:103F0000B801660F771F660F771F660F771FAD0129
:103F1000460F571F052E000C660B770B480D591DD9
:103F20006A1D7B1D021B130B000F111F012E000CBD
:103F3000220B330B400F511F621F731F4C0D5D1D71
:103F40006E1D7F1D40930F03509310036093110368
:103F50007093120377FD65C0411551056105710528
:103F600009F492C097FD5FC0413C8DE5580761059B
:103F700071050CF489C080EC9DE5A0E0B0E0809371
:103F80000F0390931003A0931103B09312034CED11
:103F900055E0518340838091290390912A0318169C
:103FA00019060CF06CC04F5F5F4F51834083411581
:103FB00082E05807E4F08FEF91E0918380831F91B6
:103FC0000F91FF90EF90DF90CF90BF90AF909F90B8
:103FD0008F900895109208031092070310920D1508
:103FE00010920C151092A6121092A512E8CF413033
:103FF0005E4F2CF781E09EEF91838083E0CF403CC1
:1040000089EF580774F580EC99EF9093080380933B
:104010000703B0E4CB2EBDEEDB2EEE24EA94FE2C9B
:104020005FCF97FD31C010920F03109210031092D2
:1040300011031092120340E050E0BA0184E075953C
:104040006795579547958A95D1F7A3CF40911F0360
:1040500050912003040F151F10930D1500930C159C
:1040600028CF50930803409307036A01CC0CDD1C52
:104070004C0D5D1D6A01550FEE08FF0831CF415010
:1040800051095183408393CF403482EA58078FEF20
:10409000680778079CF680E492EAAFEFBFEF809361
:1040A0000F0390931003A0931103B093120344E203
:1040B0005AEF6FCF8F929F92AF92BF92CF92DF92C3
:1040C000EF92FF920F931F93FC0180819181892BC6
:1040D00009F4A7C02091580F3091590F30936E13F7
:1040E00020936D130081118117FDD7C080912103AA
:1040F00090912203081B190B1093590F0093580F2E
:104100004091090350910A03400F511F413486E04A
:1041100058070CF49BC080E496E090930A038093C8
:10412000090390ECC92E92E1D92EE12CF12C80816B
:104130009181AC01440F551F440F551F440F551F6B
:104140004A01550FAA08BB08D801AA0FBB1FB80126
:10415000660F771F660F771F660F771FAD01460F3B
:10416000571F052E000C660B770B480D591D6A1D55
:104170007B1D021B130B000F111F012E000C220BC5
:10418000330B400F511F621F731F4C0D5D1D6E1DC1
:104190007F1D40930B0350930C0360930D037093AA
:1041A0000E0377FD65C0411551056105710509F4E0
:1041B00092C097FD5FC0413C8DE5580761057105D0
:1041C0000CF489C080EC9DE5A0E0B0E080930B0387
:1041D00090930C03A0930D03B0930E034CED55E0A8
:1041E0005183408380912703909128031816190664
:1041F0000CF06CC04F5F5F4F51834083411582E0EC
:104200005807E4F08FEF91E0918380831F910F9125
:10421000FF90EF90DF90CF90BF90AF909F908F90E6
:10422000089510920A03109209031092590F1092E8
:10423000580F10926E1310926D13E8CF41305E4FFD
:104240002CF781E09EEF91838083E0CF403C89EFA3
:10425000580774F580EC99EF90930A038093090353
:10426000B0E4CB2EBDEEDB2EEE24EA94FE2C5FCF25
:1042700097FD31C010920B0310920C0310920D03A6
:1042800010920E0340E050E0BA0184E07595679506
:10429000579547958A95D1F7A3CF40912103509127
:1042A0002203040F151F1093590F0093580F28CFA6
:1042B00050930A03409309036A01CC0CDD1C4C0D9A
:1042C0005D1D6A01550FEE08FF0831CF41505109BD
:1042D0005183408393CF403482EA58078FEF6807B9
:1042E00078079CF680E492EAAFEFBFEF80930B0370
:1042F00090930C03A0930D03B0930E0344E25AEF86
:104300006FCF85B7806185BF8FEF81B912B897EF06
:1043100094B990EE95B990EF97B990EB98B99CEF5E
:104320009AB993E09BB98DB91EB810BA83BB80913E
:10433000C902811103C014BA8091C902813009F405
:1043400040C08230D9F18FEF8093010110920201B9
:104350008FE0809304018091C902811106C0809191
:104360000501109205018091C902813009F1823066
:10437000D9F0109207018FEF80930A018091C90252
:10438000811104C010920B018091C902813039F073
:10439000823009F0089587EF80930B010895109201
:1043A0000B018091C902F4CF8FE080930501E1CF2A
:1043B0008FE0809305018091C902D9CF88E084BB4A
:1043C000C2CF14BA8091C902BCCF589A599A1092A0
:1043D000B90081E08093B800089594EA9093BC00FE
:1043E0009091BC0097FFFCCF9091B900987F9830D6
:1043F00021F0903111F081E008958093BB0084E8B2
:104400008093BC008091BC0087FFFCCF8091B900F5
:10441000887F883111F0803471F780E0089594EA44
:104420009093BC009091BC0097FFFCCF9091B90095
:10443000987F983021F0903111F081E008958093B9
:10444000BB0084E88093BC008091BC0087FFFCCF58
:104450008091B900887F883111F0803471F780E055
:10446000089584E98093BC008091BC0084FDFCCF5A
:1044700008958093BB0084E88093BC008091BC00C9
:1044800087FFFCCF9091B900987F81E0983209F0C6
:10449000089580E0089584EC8093BC008091BC0076
:1044A00087FFFCCF8091BB00089584E88093BC0017
:1044B0008091BC0087FFFCCF8091BB0008951092D3
:1044C000C50080E18093C400E0ECF0E08081826070
:1044D0008083E1ECF0E0808188698083E2ECF0E0A9
:1044E00080818660808308951F920F920FB60F928D
:1044F00011240BB60F922F933F934F935F936F93BB
:104500007F938F939F93AF93BF93EF93FF9390917C
:10451000C6008091CC028E30E1F18F3009F43FC0AB
:1045200080910C0281111EC08091F802813009F443
:1045300062C08230D9F48091F602882309F46DC0FC
:104540008130A1F42091FD023091FE02392B30938D
:10455000FE022093FD028093F7021092F6028093F0
:104560000C0204C010920C029093F802FF91EF919C
:10457000BF91AF919F918F917F916F915F914F917B
:104580003F912F910F900BBE0F900FBE0F901F9079
:1045900018959A3A59F781E080936302E7CF9B32EE
:1045A00001F19D3291F1973609F041C09091F402EA
:1045B0008091C00085FFFCCF9093C6008091C00021
:1045C00086FFFCCF909166009093350F8091C000DC
:1045D00085FFFCCF9093C6008091C00086FFFCCF82
:1045E000C5CF8091350F8F3F19F08F5F8093350FC6
:1045F00080936600BBCF9A3A21F1953509F0B6CF8A
:1046000080930C021092F802B1CF8091350F88236D
:1046100079F381508093350FEBCF892F90E0909301
:10462000FE028093FD0281E08093F6029FCF9337D4
:1046300009F09CCF6091350F8DEF9FE00E948D5067
:1046400095CF8093F50292CF86B136B196B126B15F
:1046500093FB992790F9990F32FB332730F9930F89
:10466000990F26952170920F990F8170890F0895E7
:10467000F89414BC15BC10926E0010922001109298
:1046800021018EEF9FE00E945F509093FE02809385
:10469000FD028DEF9FE00E9457508093350F9FEFF2
:1046A000980F9E3FE0F5809366008091FD02909107
:1046B000FE029C0121583C402330310508F5109240
:1046C000C9020E947E400E9481210E9400240E9413
:1046D000722A0E940E440E9452130E943B14809141
:1046E000FB02811105C08091FC0281608093FC0275
:1046F0000E945F220E946C440E94861B7894089559
:1047000080382CE0920721F481E08093C902D9CF50
:1047100084389C40B0F282E08093C902D2CF60918D
:1047200066006093350F8DEF9FE00E948D50BDCFE6
:104730001F920F920FB60F9211240F900FBE0F9081
:104740001F9018956091CD027091CE028091CF029A
:104750009091D002089581E08093480308951092CB
:104760002F031092300310923103109232031092F3
:1047700033031092340310923503109236031092D3
:10478000AF021092B0021092B1021092B2021092D7
:10479000D4021092D30210928A0210928B021092CD
:1047A0008C0210928D021092EA021092E90210928D
:1047B000E8021092E7021092E6021092E5021092CF
:1047C000A7021092A8021092A9021092AA021092B7
:1047D000A3021092A4021092A5021092A6021092B7
:1047E0009702109298021092990210929A021092D7
:1047F0009B0210929C0210929D0210929E020895BC
:10480000CF93DF93EAE7F0E01082ABE7B0E01C92D1
:10481000CCE7D0E0188280818660808388818064C4
:1048200088838081806280838C91887F8C93808153
:1048300088608083808180688083808180648083B9
:10484000DF91CF9108951F920F920FB60F9211240E
:104850000BB60F922F933F934F935F936F937F937A
:104860008F939F93AF93BF93CF93EF93FF938091D9
:10487000CD029091CE02A091CF02B091D0028F3F95
:104880002FEF9207A207B20709F422C10196A11DDA
:10489000B11D8093CD029093CE02A093CF02B0932E
:1048A000D002809178002091790090E0922B2091A5
:1048B0004E03223009F41CC208F4C1C0243009F4AC
:1048C0001EC108F43DC22630A9F54091E303509182
:1048D0006102242F30E0F90168E0569FE00DF11DE0
:1048E0001124EE0FFF1F60914E1270914F12E60FD0
:1048F000F71F91838083220F331FE0911C15F091E5
:104900001D15E20FF31F608171816817790710F49C
:1049100091838083E091AC0FF091AD0FE20FF31F14
:10492000208131818217930710F4918380834F5F38
:104930004093E30380916502823009F497C081308F
:1049400009F4CFC081112DC080914D03823009F44C
:1049500095C308F000C1882309F4A3C3813009F589
:104960008091E2038093E4038091DF0380934B0303
:1049700010924E0382E080934D03C0916702C130D4
:1049800009F4D7C3C23069F48091E303873149F455
:10499000C093650280915D02813009F414C11092C8
:1049A00065028091E403883010F580917B00877F59
:1049B00080937B008091E403805C80937C008091F5
:1049C0004D03823011F1FF91EF91CF91BF91AF91E3
:1049D0009F918F917F916F915F914F913F912F9117
:1049E0000F900BBE0F900FBE0F901F9018958091E7
:1049F0007B00886080937B008091E403885C8093D7
:104A00007C0080914D038230F1F680916502811126
:104A1000DACF8091C902811108C080910501807FA1
:104A20008093050112B88091C902813009F4BFC09A
:104A3000823049F68FEF8093050112B8C4CF22234C
:104A400009F4C5C0213009F075CF20912B033091B6
:104A50002C03820F931F9695879590932C03809338
:104A60002B0380916502823009F069CF80915E024C
:104A7000813009F478C108F4A1C0833009F49DC1E4
:104A8000843009F08ECF809152028F5F8093520262
:104A900090E020915502309156028217930709F455
:104AA000CDC18091E2038093E4038091DF03809382
:104AB0004B0380914C03882309F4AAC1813009F487
:104AC000C1C385E080934E0383E080935E0269CF8B
:104AD0001092CD021092CE021092CF021092D0020C
:104AE000E0CE8091620290E08D30910508F059CFC0
:104AF000FC018827E254FF4F8F4F0C94A74F209161
:104B00001102222309F416CF3091000133FD12CF98
:104B10003091000134FD0ECF2F5F2093110225301C
:104B200008F408CF40911B0350911C03452B51F012
:104B30004091250350912603840F951F90932603DF
:104B400080932503283009F0F5CE1092110281E000
:104B500080931402EFCE833009F47DC2843009F0D3
:104B600020CF9091E1039093E4039091E003909320
:104B70004C0390914B039111C4C283E080934E0388
:104B800010924D038091E3038E3009F4F7C280FF49
:104B900008CF803108F0FEC2869521E030E0A901FF
:104BA00002C0440F551F8A95E2F742B9FACE8FEF43
:104BB0008093050112B88091C9023ACF80915D02BD
:104BC000813009F0EECE81E080935E02EACE209142
:104BD000E3032E3009F475C2E22FF0E0EE0FFF1F61
:104BE000E155FC4F9183808320FF7CC0422F50E031
:104BF000FA01EE0FFF1FE355FC4F80819181440FB6
:104C0000551FFA01E155FC4F60817181422F469595
:104C100050E0861B970B440F551FFA01E158FC4FDB
:104C200060817181861B970B97FD78C2813074E09B
:104C300097070CF4F1C080E094E0FA01E956FC4FCC
:104C400091838083203188F480E094E0FA01E95C6C
:104C5000FC4F845A914095958795959587959595A4
:104C600087958C549F4F918380838091B4028823D1
:104C700009F436C28091A7039091A803843A914029
:104C8000B4F08091A9039091AA03843A91407CF0FA
:104C90008091AB039091AC03843A914044F08091B1
:104CA000AD039091AE03843A91400CF019C281E0BB
:104CB0008093B30210921C0310921B031092A90060
:104CC0001092A8001092AB001092AA0010921E033E
:104CD00010921D03109299001092980010929B0060
:104CE00010929A002F5F2831C0F52093E30322CE63
:104CF00020911202222309F41DCE63991BCE6499E0
:104D000019CE2F5F20931202253008F413CE409164
:104D10001D0350911E03452B51F0409123035091E8
:104D20002403840F951F909324038093230328303A
:104D300009F000CE1092120281E080931302FACDA6
:104D400020912D0330912E03820F931F9695879506
:104D500090932E0380932D03EDCD1092E30381E019
:104D600080934703E7CD8091C902811108C08091EB
:104D70000501807F8093050112B88091C9028130BE
:104D800009F4A4C0823009F49CC08091E2038093AE
:104D9000E4038091DF0380934B0385E080934E030F
:104DA0008093640282E080935E02809151028111BF
:104DB00025C081E080935102F4CD809152028F5F33
:104DC0008093520290E02091550230915602821752
:104DD000930709F45DC08091E1038093E40380911F
:104DE000E00380934C0380914B0381110AC083E060
:104DF00080934E0384E080935E02D3CD10925102E3
:104E0000D0CD813009F405C285E080934E03F2CF06
:104E100081E080934E0358CEFA01E956FC4F91830E
:104E20008083203108F021CF8C3391050CF0C2C271
:104E3000FA01E95CFC4F9183808317CF10925202F4
:104E4000809157028111DAC181E0809357028091ED
:104E50005102811115C28AEA82B9809153028F5F93
:104E6000809353029091540289131BCE8091580273
:104E70008F5F809358028C3009F47FC282E0809368
:104E8000640282E080935E0285E080934E0389CDC8
:104E900010925202809157028111ACC181E080933F
:104EA0005702809151028111E8C18AEA82B980914A
:104EB00053028F5F809353029091540289138BCFDA
:104EC000D5CF8FEF8093050112B85FCF8FEF80931E
:104ED000050112B88091C90255CF8091E3038F5F1D
:104EE0008093E40386E080934E0387E08093620220
:104EF00058CD8091E3038F5F8093E40386E0809335
:104F00004E03809362024DCD8091E3038F5F8093C7
:104F1000E40386E080934E0385E08093620241CDF6
:104F20008091E3038F5F8093E40386E080934E03D8
:104F300084E08093620235CD8091E3038F5F80939C
:104F4000E40386E080934E0383E08093620229CDE0
:104F50008091E3038F5F8093E40386E080934E03A8
:104F600082E0809362021DCD1092E30381E0809382
:104F7000E40396E090934E038093620212CD85E0A5
:104F800080934E030ECD8091E1038093E4038091E2
:104F9000E00380934C0380914B03811133C183E084
:104FA00080934E0390915F029E3F18F49F5F909311
:104FB0005F02809161028F5F8093610220916402A1
:104FC000243009F44FC1843109F479C18BE0809316
:104FD0006202E7CC8091E2038093E4038091DF03D7
:104FE00080934B0380914C03811125C181E0809314
:104FF0004E038AE080936202D4CC1092E403809145
:105000004C0381110AC181E080934E031092620229
:10501000C8CC8091E1038093E4038091E003809306
:105020004C0380914B038111FFC083E080934E03BA
:1050300089E080936202B5CC8091E2038093E4031F
:105040008091DF0380934B0386E080934E0388E0DA
:1050500080936202A6CC8091E2038093E403809166
:10506000DF0380934B0380914C0381113CC081E0AE
:1050700080934E0384E080934D0393CC8091E103B1
:105080008093E4038091E00380934C0380914B0371
:1050900081113DC083E080934E0383E080934D03F4
:1050A00080CC8091E30386958093E40380914C0348
:1050B000811120C081E080934E0381E080934D03F5
:1050C00070CC30914803323009F086CD90934A037A
:1050D000809349031092480346982091E30384CDBE
:1050E0001092B302FFCD813009F4B0C085E0809307
:1050F0004E03C0CF813009F4B1C085E080934E03E8
:10510000DCCF913009F085E080934E0339CD8130BA
:1051100009F4A0C085E080934E03BFCFFA01E956A1
:10512000FC4F11821082203108F09FCD80E090E08A
:105130007FCE8091E303873109F033CC1092E403F2
:10514000109248031092620210926102E0911C15C5
:10515000F0911D1580E1DF011D928A95E9F740E18C
:1051600050E06FEF70E08091AC0F9091AD0F0E9416
:105170004050C0936502C091670204CC80914803FF
:10518000813009F00ECC82E080934803469A8091EA
:10519000E303FDCC9091C902911110C090E04097BB
:1051A0009595879521E030E0B90102C0660F771F21
:1051B0008A95E2F7609305019091C902913009F454
:1051C00062C0923009F0EDCB409105018091E3037C
:1051D00090E040979595879521E030E0B90102C0B5
:1051E000660F771F8A95E2F7CB0180958423809321
:1051F0000501D7CB1092570212B859CE1092570220
:1052000012B82BCE813009F4B0C085E080934E03F4
:10521000C9CE84E080934E03EDCD813009F44BC0BC
:1052200085E080934E03F2CE813009F49AC085E088
:1052300080934E03FDCE813009F49BC085E08093BE
:105240004E03D7CE82E080934E033ECC82E0809323
:105250004E0310CF84E080934E031FCF82E08093F3
:105260004E032BCF1092610280916002981708F4D0
:10527000ADCE85E080936402A9CE85E582B917CED4
:1052800085E582B9EACD409105018091E30390E084
:1052900040979595879521E030E0D90102C0AA0F8B
:1052A000BB1F8A95E2F7CD01809584238093050189
:1052B0009091C90286CF82E080934E03A7CE1092D0
:1052C0006102809132129091331220914E123091EE
:1052D0004F12309333122093321290934F128093D7
:1052E0004E12E0912F0FF091300F80911C1590918C
:1052F0001D159093300F80932F0FF0931D15E093A1
:105300001C1580911B0F90911C0F90935E1580933C
:105310005D152091AC0F3091AD0F30931C0F209391
:105320001B0F9093AD0F8093AC0F80E1DF011D92B6
:105330008A95E9F740E150E06FEF70E08091AC0FA3
:105340009091AD0F0E94405080916402813061F1D4
:1053500080916402853009F039CE86E08093640242
:1053600035CE84E080934E0363CE84E080934E0379
:1053700019CE82E080934E033CCE81E0809364029C
:1053800010925D0210924D03109265020E94F44A41
:1053900012B80E94A2236093590270935A0280931C
:1053A0005B0290935C026DCD82E080936402109268
:1053B0005F02CECFBC01645C7F4F603F710554F447
:1053C000FA01E95CFC4FCC9795958795CC96918333
:1053D00080834BCCBC01645D7E4F603D72400CF01D
:1053E00035CCFA01E95CFC4F845B91099595879572
:1053F0009595879588589F4F9183808336CC80916F
:10540000190390911A03009741F1209115033091EF
:105410001603829FA001839F500D929F500D11246F
:1054200057FD1BC0281739070CF04CC040910702EC
:10543000240F311D821793070CF04FC09093160371
:10544000809315038091170390911803009779F4C6
:1054500010921403109213030895109216031092E1
:1054600015038091170390911803009789F32091F9
:10547000130330911403829FA001839F500D929FCC
:10548000500D112457FDE4CF2817390764F44091DB
:105490000702240F311D821793077CF490931403A5
:1054A00080931303089582179307E4F7409107024E
:1054B000241B3109281739078CF3309314032093E8
:1054C000130308958217930764F640910702241B83
:1054D0003109281739070CF4B1CF30931603209304
:1054E0001503BFCF0F931F93CF93DF93E0E9F0E055
:1054F000108241E950E0DA011C9221E730E0E90135
:105500001882A0EAB0E01C9281EA90E0EC011882D7
:1055100002E710E0E80118826081636860836081BF
:1055200063606083EA0168816B60688340911D035A
:1055300050911E03509399004093980010929B0045
:1055400010929A00E90148814160488320812F75BB
:1055500020832EB1277E2EB92C9123682C93FC0139
:1055600020812B60208380911B0390911C039093DA
:10557000A9008093A8001092AB001092AA00E80145
:105580008881816088838C918F758C93E2E0F1E053
:105590008081877E8083DF91CF911F910F91089545
:1055A000AF92BF92CF92DF92EF92FF920F931F9331
:1055B000CF93DF938091530F882309F4C1C0C0912A
:1055C0001503D091160300911303109114038091D9
:1055D00014028823C1F1609125037091260376950A
:1055E00067957695679570932203609321031092D7
:1055F00014021092260310922503809117039091B4
:10560000180375956795759567957595679597FDD9
:105610001CC1072E000C880B990B0E94C94C9B01E2
:10562000AC0160912F037091300380913103909110
:1056300032030E94FD4A60932F03709330038093DE
:10564000310390933203809113028823C1F160915A
:1056500023037091240376956795769567957093EB
:10566000200360931F0310921302109224031092E0
:1056700023038091190390911A0375956795759589
:1056800067957595679597FDC5C0072E000C880B2B
:10569000990B0E94C94C9B01AC016091330370913E
:1056A000340380913503909136030E94FD4A609344
:1056B0003303709334038093350390933603CE0104
:1056C000880F991F880F991F8C0F9D1F90930603B9
:1056D000809305039801220F331F220F331F200FE1
:1056E000311F30930403209303034091B50241110D
:1056F00076C030931C0320931B0390931E0380936A
:105700001D03181619060CF079C090939900809328
:10571000980080911B0390911C03181619060CF039
:1057200052C09093A9008093A800DF91CF911F9160
:105730000F91FF90EF90DF90CF90BF90AF900895C2
:105740000E94A223DC01CB019C01AD0160E070E06E
:1057500080E090E0A090BC02B090BD02C090BE027C
:10576000D090BF02E090C002F090C1020091C2024E
:105770001091C3020E94BA4F2F38314041055105A4
:10578000610571058105910509F008F418CF0E94A3
:10579000A223DC01CB018093BC029093BD02A093B5
:1057A000BE02B093BF021092C0021092C1021092CA
:1057B000C2021092C3028091BB02882309F468C020
:1057C0000E94FF29FCCE009709F073C01092A90037
:1057D0001092A8001092AB001092AA00A6CF65E02C
:1057E00073E083E093E00E9407422091030330912D
:1057F000040380910503909106037BCF009709F085
:105800003FC0109299001092980010929B00109245
:105810009A007FCF072E000C880B990B0E94C94C71
:105820009B01AC0160913303709134038091350387
:10583000909136030E94FC4A6093330370933403C3
:1058400080933503909336033ACF072E000C880BD4
:10585000990B0E94C94C9B01AC0160912F03709180
:10586000300380913103909132030E94FC4A60938F
:105870002F03709330038093310390933203E3CE70
:1058800091958195910990939B0080939A0041CFC7
:10589000C0911903D0911A03D0931603C093150336
:1058A000009117031091180310931403009313032E
:1058B0008ECE9195819591099093AB008093AA002B
:1058C00034CF282F082E000C330B37FD13C0309334
:1058D00002032093010387FD05C030931803209332
:1058E00017030895319521953109309318032093BA
:1058F00017030895319521953109E9CF282F082EF6
:10590000000C330B37FD13C0309300032093FF02CC
:1059100087FD05C030931A0320931903089531952C
:105920002195310930931A03209319030895319575
:1059300021953109E9CF8091380F811131C0E09173
:10594000A012E23008F496C0F0E0DF01A295B29513
:10595000B07FBA27A07FBA27A955BD4E12962D91C8
:105960003C91139780915B1590915C15281739072E
:1059700034F0C901019690935C1580935B15E29514
:10598000F295F07FFE27E07FFE27E954FD4E20913F
:105990007C0230917D02318320839383828308953A
:1059A000813031F0823009F46BC0833091F1089579
:1059B000E091A012E23008F493C0F0E0DF01A2957C
:1059C000B295B07FBA27A07FBA27A955BD4E1696CB
:1059D0002D913C91179780915B1590915C1528173C
:1059E000390734F0C901019690935C1580935B15DB
:1059F000E295F295F07FFE27E07FFE27E954FD4E09
:105A000020917A0230917B023583248397838683A9
:105A10000895E091A012E23008F468C0F0E0DF01E0
:105A2000A295B295B07FBA27A07FBA27A955BD4EDF
:105A30001E962D913C911F9780915B1590915C155E
:105A40002817390734F0C901019690935C158093AB
:105A50005B15E295F295F07FFE27E07FFE27E95483
:105A6000FD4E20917A0230917B02358724879787FB
:105A700086870895F0E080915B1590915C157FCF4B
:105A8000E091A012E230C0F1F0E0DF01A295B29502
:105A9000B07FBA27A07FBA27A955BD4E1A962D917F
:105AA0003C911B9780915B1590915C1528173907E5
:105AB00034F0C901019690935C1580935B15E295D3
:105AC000F295F07FFE27E07FFE27E954FD4E2091FE
:105AD0007C0230917D0231872087938782870895E9
